:10047D00060FFFF9A4B09992041D408010200408C6
:10048D002010804004170408010204210201080411
:10049D001025F0F1F2F3F4F5F6F7F8F9FAFBFCFD9F
:1004AD00FEFF010DFF08350F1F2F3FCFBFAF9F027E
:0F04BD001B0F00011601011500010C00010E00BC
:0C06AA007F0A7E2A7D02DDFEDEFADFF60C
:0106B6002221
:0C06B7007F137E147D82DDFEDEFADFF68C
:0106C3002214
:0806E9007FE07E8ADEFEDFFAED
:0106F10022E6
:0C06C4007F027EDC7D22DDFEDEFADFF628
:0106D0002207
:05069C002CF8E6F5A0BA
:0806A1007F3A7EB2DEFEDFFAB3
:0106A900222E
:07066300AFF02FF8E6F5A04F
:0C066A007F057ED47D8CDDFEDEFADFF61D
:010676002261
:0C06D1007F7F7EEB7D20DDFEDEFADFF691
:0106DD0022FA
:0406F2002095FD2230
:10068A007C037B027A0AB2971206AADAF9DBF5DC56
:01069A00F16E
:01069B00223C
:0B06DE00209607B2971206AA80F622B1
:1005F200E5157009E50C6005D293C29422E515B4A5
:100602000409E50C6005C293D29422E50C7004C281
:0406120093C29422D9
:1000E800E50DC454F012006D010F00011E1001331C
:1000F80020014730015F4001715001896001A17002
:1001080001BD80000001C0E51614F50CD36480948D
:100118008040520201B9E51624FEF50CD3648094A0
:100128008040030201B9C374028026E51624FDF558
:100138000CD36480948040028077C374038012E5F6
:100148001624FCF50CD36480948040028063C37449
:10015800049516F50C8050C374059516F50CD364F8
:10016800809480400280408048C374049516F50C42
:10017800D3648094804002802EE51624FCF50C8020
:1001880030C374039516F50CD364809480400280C4
:1001980016E51624FDF50C8018C374029516F50CA7
:1001A800D3648094804004E4F51522E51624FEF516
:0901B8000C75150422E4F50C227B
:0204CD00AA077C
:1004CF00209209D295B2971206AA80F9EA7017E422
:1004DF00FBE4FC74212CF8E6F5A01206E90CBC0431
:1004EF00F20BBB02EC22E4FBE4FC74172CF8E6F5EC
:0C04FF00A01206E90CBC04F20BBB02ECDE
:01050B0022CD
:02050C00AA073C
:10050E00209209D295B2971206AA80F9EA7017E4E2
:10051E00FBE4FC74212CF8E6F5A01206C40CBC0416
:10052E00F20BBB04EC22E4FBE4FC74172CF8E6F5AA
:0C053E00A01206C40CBC04F20BBB04ECC1
:01054A00228E
:0205BD00AA078B
:1005BF00209209D295B2971206AA80F9EA7012E436
:1005CF00FBE4FC742112069C0CBC04F70BBB06F178
:1005DF0022E4FBE4FC741712069C0CBC04F70BBB63
:0205EF0006F113
:0105F10022E7
:040286008D40AC07F4
:10028A00209209D295B2971206AA80F9EC7046E438
:10029A00F9E4FA74212A12069DE50C6401602DEB3B
:1002AA0064017028E540B40323EAFD3395E0FCE9D4
:1002BA00FF3395E0FE120025EF640C4E700E051612
:1002CA00740F2516F8E6F580E4F540FB0ABA04C374
:1002DA0009B906BD22E4F9E4FA74172A12069DE563
:1002EA000C6401602DEB64017028E540B40323EA35
:1002FA00FD3395E0FCE9FF3395E0FE120025EF643B
:10030A000C4E700E1516740F2516F8E6F580E4F5F6
:0A031A0040FB0ABA04C309B906BD8E
:0103240022B6
:1001C100E4F53E753F011205F2AF151204CDAF15EE
:1001D10012050CAF151205BDE4F53DAF0CEF3395DB
:1001E100E0FE7C007D06120025EF24FDFFEE34FFCA
:1001F100FEAD3DED3395E0FCC3ED9FEE6480F8EC80
:100201006480985055AB3FAD3EAF15120286053E56
:10021100E53D75F003120003AFF0EF7039E50DC451
:1002210054F0FFE5B0C454F06F600685B00D1200C4
:10023100E8E53D6403601FAF3DEF3395E0FEEF2439
:10024100FDFFEE34FFFE7C007D06120037ED7006E7
:10025100753F01753E03053D8081AF151205BDAFA8
:100261001512050CAF151204CD1206F212068A12F0
:1002710006F6E5157004051680021516740F25168D
:04028100F8E6F58026
:010285002256
:10067700E4FCEC75F00412000374081206630CBC6A
:0206870008F079
:01068900224E
:10063500E50EB40112E4FCEC75F004120003741D20
:070645001206630CBC08F073
:01064C00228B
:02041E008F3D10
:10042000E4F53EC3E53D6480F8E53E648098504CB9
:100430001206DE209209D295B2971206AA80F92000
:100440009008E50EB4010375B04F209107E50E70DA
:100450000375B05F20900DE50E700912067775B038
:100460004F750E0120910EE50EB401091206357587
:0C047000B05FE4F50E1206B7053E80A751
:01047C00225D
:10064D00120677750E017F1412041E120635E4F59D
:06065D000E7F0202041EE4
:1003B100E516B4010585351B805FE516B40209E534
:1003C10015700585361B8051E516B40309E51570D6
:1003D1000585371B8043E516B40409E515700585CD
:1003E100381B8035E516B4050585391B802BE516CC
:1003F100B4040AE515B40405853A1B801CE516B45E
:10040100030AE515B40405853B1B800DE516B4020E
:0D0411000BE515B40406853C1B851BB022CD
:100616001206F21203B1E50DC454F0FFE5B0C4545E
:0F062600F06F60EC85B00D1200E8E50C60E22289
:10054B00E50DC454F0FFE5B0C454F06F602DE50E1B
:10055B00B40103120635E5B0C454F0648060038522
:10056B00B00D1200E8E50C700612064D02061612CD
:0C057B0001C112064D1200E81205F22228
:0406F600E4F50C22F9
:10058700740F2516F8E6F580C293C294D29575B01C
:100597000F75A0DDC2971206F212054B7F051204F4
:1005A7001EE50C600C1201C112064D1200E812057F
:0605B700F21203B180E026
:03000000020325D3
:0C032500787FE4F6D8FD75814002036C7F
:10000300C2D530F707B2D563F0FF05F030E70CB285
:10001300D5F4048463F0FF05F080018430D502F445
:020023000422B5
:10002500EF8DF0A4A8F0CF8CF0A428CE8DF0A42EEF
:02003500FE22A9
:10003700C2D5EC30E709B2D5E4C39DFDE49CFCEEE4
:1000470030E715B2D5E4C39FFFE49EFE120093C3C9
:10005700E49DFDE49CFC800312009330D507C3E4C4
:060067009FFFE49EFE2253
:10006D00D083D082F8E4937012740193700DA3A322
:10007D0093F8740193F5828883E473740293686036
:06008D00EFA3A3A380DF36
:10033100020587E493A3F8E493A34003F68001F256
:1003410008DFF48029E493A3F85407240CC8C333CD
:10035100C4540F4420C8834004F456800146F6DF9C
:10036100E4800B010204081020408090047DE47EAB
:10037100019360BCA3FF543F30E509541FFEE49391
:10038100A360010ECF54C025E060A840B8E493A358
:10039100FAE493A3F8E493A3C8C582C8CAC583CA83
:1003A100F0A3C8C582C8CAC583CADFE9DEE780BE3B
:0104CC00002F
:10009300BC000BBE0029EF8DF084FFADF022E4CC51
:1000A300F875F008EF2FFFEE33FEEC33FCEE9DEC1A
:1000B300984005FCEE9DFE0FD5F0E9E4CEFD22ED60
:1000C300F8F5F0EE8420D21CFEADF075F008EF2FAA
:1000D300FFED33FD4007985006D5F0F222C398FD9B
:0500E3000FD5F0EA2238
:00000001FF
