:100337000421FEFDFBF71008EEDEBE7EEDDDBD7D80
:10034700EBDBBB7BE7D7B7771028F0F1F2F3F4F5D7
:10035700F6F7F8F9FAFBFCFDFEFF0818FFFFFFFFB1
:10036700FFFFFFFF08380F1F2F3FCFBFAF9F0226AA
:08037700FFFF01250101200038
:1000030075400AE4FF74212FF8E6F5B0E4FEEF250E
:10001300E025E02E2408F8E665B06003020106EF50
:1000230025E025E02EB410004003020106900037BE
:10003300F828287302006702007402008002008B14
:100043000200960200A10200AC0200B70200C20245
:1000530000CD0200D80200E30200EE0200FC020120
:1000630000020104E525B401030200F3D28002017A
:1000730006E525B402028078D281020106E525B4A3
:100083000302806CD282807BE525B404028061D2B6
:10009300838070E525B405028056D2848065E5250A
:1000A300B40202804BD285805AE525B40302804016
:1000B300D286804FE525B404028035D2878044E59B
:1000C30025B40102802AD2A08039E525B40202803A
:1000D3001FD2A1802EE525B403028014D2A280236F
:1000E300E525B404028009D2A38018E525B40505EB
:1000F3007590F8800ED2A4800AD2A58006D2A6807D
:1001030002D2A70EEE640460030200110FEF640431
:0501130060030200087A
:0101180022C4
:10011900859026E526B408037590FFE5267804A2A4
:10012900E713D8FBC454F0240F1203A2015A0F019C
:10013900681F01762F01843F01CA4F01CC5F01CEB0
:100149006F01BC9F01AEAF01A0BF0192CF000001BA
:10015900D0752501E4F520C280C2A07518FF22756B
:100169002502E4F520C281C2A17519FF2275250374
:10017900E4F520C282C2A2751AFF22752504E4F5AE
:1001890020C283C2A3751BFF22752505752004C2F1
:1001990084C2A4751CFF22752504752004C287C278
:1001A900A3751DFF22752503752004C286C2A27599
:1001B9001EFF22752502752004C285C2A1751FFF85
:0801C90022C2A5C2A6C2A722B2
:1002D00020A00330800385281830A104E5206003A6
:1002E00030810385291930A204E5206003308203A0
:1002F000852A1A30A304E5206003308303852B1B75
:1003000020A403308403852C1C30A306E52064045C
:100310006003308703852D1D30A206E5206404604C
:1003200003308603852E1E30A106E5206404600399
:07033000308503852F1F2219
:10025D00E4FEED701DEF142EFC75F008120380A95D
:10026D00F0741829F8E6FCF4FB3395E04B60038C31
:10027D009022BF051DEF142EFC75F008120380A906
:10028D00F0741829F8E6FCF4FB3395E04B60038C11
:10029D009022ED64047025ED2405C39F2EFC75F0AE
:1002AD0008120380A9F0741829F8E6FCF4FB3395C5
:1002BD00E04B6008EF640560038C90220EEE64083D
:0202CD0070902F
:0102CF00220C
:1003C800E4F580F5A07590FF1200031202D0AD206D
:0A03D800AF2512025D12011980EE3C
:030000000201D129
:0C01D100787FE4F6D8FD7581400202182A
:10038000C2D530F707B2D563F0FF05F030E70CB205
:10039000D5F4048463F0FF05F080018430D502F4C5
:0203A000042235
:1003A200D083D082F8E4937012740193700DA3A3EA
:1003B20093F8740193F5828883E4737402936860FE
:0603C200EFA3A3A380DFFE
:1001DD000203C8E493A3F8E493A34003F68001F26D
:1001ED0008DFF48029E493A3F85407240CC8C33323
:1001FD00C4540F4420C8834004F456800146F6DFF2
:10020D00E4800B0102040810204080900337E47E47
:10021D00019360BCA3FF543F30E509541FFEE493E6
:10022D00A360010ECF54C025E060A840B8E493A3AD
:10023D00FAE493A3F8E493A3C8C582C8CAC583CAD8
:10024D00F0A3C8C582C8CAC583CADFE9DEE780BE90
:01037F00007D
:00000001FF
